:100000000C945D000C9485000C9485000C94850084
:100010000C9485000C9485000C9485000C9485004C
:100020000C9485000C9485000C9485000C9485003C
:100030000C9485000C9485000C9485000C9485002C
:100040000C94A5050C9485000C9415060C94EF05F2
:100050000C9485000C9485000C9485000C9485000C
:100060000C9486040C9485000000000024002700F6
:100070002A0000000000250028002B0004040404CE
:100080000404040402020202020203030303030342
:10009000010204081020408001020408102001021F
:1000A00004081020000000080002010000030407FB
:1000B0000000000000000000470611241FBECFEF23
:1000C000D8E0DEBFCDBF11E0A0E0B1E0E6E7F1E1AE
:1000D00002C005900D92A234B107D9F722E0A2E444
:1000E000B1E001C01D92A83BB207E1F710E0CDE5F9
:1000F000D0E004C02197FE010E94B308CC35D1079F
:10010000C9F70E948F060C94B9080C94000085ED85
:100110008093BC008091BC0084FDFCCF1092DD0177
:1001200008952091B701260F3327331F213231055F
:10013000ECF42091DD01FC0190E080E0243069F0D6
:1001400082E00895A091B7012191AC014B565E4F1A
:10015000A40FB52FB11D2C930196861798F38091AB
:10016000B701680F6093B70180E0089581E00895BA
:10017000089508950895E091920180919101E81702
:1001800030F4F0E0EF58FE4F808190E008958FEF5B
:100190009FEF089590919201809191012FEF3FEF91
:1001A000981748F4E92FF0E0EF58FE4F208130E037
:1001B0009F5F90939201C901089580919101909160
:1001C0009201891B990B0895CF92DF92EF92FF92D3
:1001D0000F931F93CF93DF937C01CB018A01209172
:1001E0007001222389F0EB016B01C40ED51ECC15E2
:1001F000DD0569F06991D701ED91FC910190F081E5
:10020000E02DC7010995F3CF642F0E949100C8012A
:10021000DF91CF911F910F91FF90EF90DF90CF90E2
:100220000895CF93DF931F92CDB7DEB769832091F6
:1002300070012223F9F020919301203258F021E03F
:1002400030E0FC013383228390E080E00F90DF9167
:10025000CF91089580919401E82FF0E0E05BFE4F8C
:10026000998190838F5F809394018093930181E0C3
:1002700090E0ECCF61E0CE0101960E949100F7CFB3
:1002800090E0FC01EC55FF4F2491FC01E057FF4F3B
:100290003491FC01E458FF4FE491EE23C9F022238E
:1002A00039F0233001F1A8F4213019F1223029F17D
:1002B000F0E0EE0FFF1FEE58FF4FA591B4918FB7FE
:1002C000F894EC91611126C030953E233C938FBF8A
:1002D00008952730A9F02830C9F0243049F78091DB
:1002E00080008F7D03C0809180008F778093800095
:1002F000DFCF84B58F7784BDDBCF84B58F7DFBCF17
:100300008091B0008F778093B000D2CF8091B00001
:100310008F7DF9CF3E2BDACF3FB7F89480914C0117
:1003200090914D01A0914E01B0914F0126B5A89B2F
:1003300005C02F3F19F00196A11DB11D3FBFBA2F77
:10034000A92F982F8827BC01CD01620F711D811D37
:10035000911D42E0660F771F881F991F4A95D1F7BC
:1003600008958F929F92AF92BF92CF92DF92EF92B9
:10037000FF924B015C010E948C016B017C010E9489
:100380008C016C197D098E099F09683E73408105B7
:100390009105A8F321E0821A9108A108B10888EE1E
:1003A000C80E83E0D81EE11CF11C81149104A10445
:1003B000B10429F7FF90EF90DF90CF90BF90AF90FE
:1003C0009F908F900895AF92BF92CF92DF92EF925D
:1003D000FF920F931F93CF93DF936C017B018B01EF
:1003E000040F151FEB015E01AE18BF08C017D1073F
:1003F00059F06991D601ED91FC910190F081E02DC9
:10040000C6010995892B79F7C501DF91CF911F911D
:100410000F91FF90EF90DF90CF90BF90AF90089535
:10042000FC01538D448D252F30E0842F90E0821BFA
:10043000930B541710F0CF96089501970895FC017F
:10044000918D828D981761F0A28DAE0FBF2FB11DD7
:100450005D968C91928D9F5F9F73928F90E008952F
:100460008FEF9FEF0895FC01918D828D981731F0E9
:10047000828DE80FF11D858D90E008958FEF9FEF3D
:100480000895FC01918D228D892F90E0805C9F4F13
:10049000821B91098F73992708958FE092E00E9443
:1004A000410221E0892B09F420E0822F089580E0A9
:1004B00090E0892B29F00E944D0281110C940000DC
:1004C0000895FC01A48DA80FB92FB11DA35ABF4FE9
:1004D0002C91848D90E001968F739927848FA68943
:1004E000B7892C93A089B1898C91837080648C9397
:1004F000938D848D981306C00288F389E02D808146
:100500008F7D80830895EF92FF920F931F93CF9377
:10051000DF93EC0181E0888F9B8D8C8D98131AC03E
:10052000E889F989808185FF15C09FB7F894EE8925
:10053000FF896083E889F989808183708064808382
:100540009FBF81E090E0DF91CF911F910F91FF90CD
:10055000EF900895F62E0B8D10E00F5F1F4F0F7375
:100560001127E02E8C8D8E110CC00FB607FCFACF30
:10057000E889F989808185FFF5CFCE010E9461026B
:10058000F1CFEB8DEC0FFD2FF11DE35AFF4FF08201
:100590009FB7F8940B8FEA89FB8980818062CFCF67
:1005A000CF93DF93EC01888D8823B9F0AA89BB89AA
:1005B000E889F9898C9185FD03C0808186FD0DC095
:1005C0000FB607FCF7CF8C9185FFF2CF808185FFB6
:1005D000EDCFCE010E946102E9CFDF91CF91089566
:1005E000CF93FC01C48121E020937001C0934201AC
:1005F00010929401109293018385682B83E092E01E
:100600000E94110190919301913208F03FC08091B6
:10061000DD018111FCCF82E08093DD0181E08093D8
:10062000DF018FEF8093DC011092010290930002B2
:10063000A0E5B1E0E0EEF1E080E098132FC0109269
:10064000020280910202CC0FC82BC093020280915B
:10065000DE01813039F51092DE0180910202809333
:10066000BB008091BC0083FDF8CF85EC8093BC007B
:100670008091DD018230E1F38091DC018F3F31F028
:100680008091DC01803211F08091DC0110929401A4
:100690001092930110927001CF9108952D912193A2
:1006A0008F5FCBCF85EEE2CF089590E080E0089594
:1006B000FB0101900020E9F73197AF01461B570B72
:1006C000DC01ED91FC910280F381E02D09948F9281
:1006D0009F92AF92BF92EF92FF920F931F93CF938F
:1006E000DF93CDB7DEB7A1970FB6F894DEBF0FBE8C
:1006F000CDBF7C01FA01CB0119A2223008F42AE017
:100700008E010F5D1F4F822E912CB12CA12CBF01A9
:10071000A50194010E949108F901CA016A300CF503
:10072000605DD8016E938D01232B242B252B79F747
:1007300090E080E0109721F0BD01C7010E945803AE
:10074000A1960FB6F894DEBF0FBECDBFDF91CF915B
:100750001F910F91FF90EF90BF90AF909F908F905F
:100760000895695CDECF0F931F93CF938C01C62F42
:100770000E94F0026C2F6460C8010E94F0026C2F8E
:100780006B7FC8010E94F00283EC90E00197F1F7C3
:10079000CF911F910F9108950F931F93CF93DF93E4
:1007A0008C01D62FC42F607F642B0E94B30380E19D
:1007B000D89FB00111246C2BC801DF91CF911F91FC
:1007C0000F910C94B303CF93DF93823028F0909174
:1007D000B10298609093B1028093B40262E370E03A
:1007E00080E090E00E94B1016091B7028CEA92E053
:1007F0000E94F00268EE73E080E090E00E94B10198
:1008000060E38CEA92E00E94B303CBE4D6E4CE012D
:100810000197F1F760E38CEA92E00E94B30321971D
:10082000F1F760E38CEA92E00E94B30383E592E083
:100830000197F1F760E28CEA92E00E94B3036091C5
:10084000B102606240E08CEA92E00E94CC0384E056
:100850008093B20240E06CE08CEA92E00E94CC030C
:1008600040E061E08CEA92E00E94CC03CBE3DFE160
:10087000CE010197F1F782E08093B30240E066E099
:100880008CEA92E00E94CC0340E062E08CEA92E0C5
:100890000E94CC032197F1F7DF91CF910895CF9378
:1008A000DF93CDB7DEB728970FB6F894DEBF0FBE43
:1008B000CDBF98E0E0E0F1E0DE01119601900D92ED
:1008C0009A95E1F79091B402981708F48FEF90E0B1
:1008D000880F991F21E030E02C0F3D1F820F931FDE
:1008E000FC016081606840E08CEA92E028960FB6D7
:1008F000F894DEBF0FBECDBFDF91CF910C94CC0337
:1009000041E00E94CC0381E090E008951F920F9295
:100910000FB60F9211242F933F934F935F936F93D2
:100920007F938F939F93AF93BF93EF93FF938091A8
:10093000B900887F803609F44AC0F0F5883209F49E
:10094000A7C018F5803109F49BC0B8F4882309F4D6
:10095000F9C0883009F494C0FF91EF91BF91AF9135
:100960009F918F917F916F915F914F913F912F91C7
:100970000F900FBE0F901F901895883109F488C012
:10098000803251F78093DC0114C0803409F49DC09B
:1009900040F48033B9F38833F9F68093DC0185ECB9
:1009A000B0C0803509F485C0883509F496C0883414
:1009B00099F60E948700D0CF883909F48CC038F5A9
:1009C000883729F050F4883611F0803729F683E013
:1009D0008093DD011092DB0157C0883809F47BC099
:1009E000803919F0803809F0B7CF8091DB0180326F
:1009F00008F071C0E091DB0181E08E0F8093DB0194
:100A00008091BB00F0E0E554FE4F80833DC0803B09
:100A100039F0E0F4803A09F479C0883A09F09CCFC3
:100A200084E08093DD011092B8011092B701E0914B
:100A3000B501F091B60109958091B70181110FC000
:100A400081E08093B7011092950109C0803C09F4C0
:100A5000A6CF883C09F4A3CF883B09F07DCFE09175
:100A6000B80181E08E0F8093B801F0E0EB56FE4FA5
:100A700080818093BB009091B8018091B70129C01B
:100A8000809102028093BB0085EC8093BC0064CF10
:100A90009091010280910002981758F5E0910102AF
:100AA00081E08E0F80930102F0E0E052FE4F8081E2
:100AB000E9CFE091010281E08E0F809301028091E5
:100AC000BB00F0E0E052FE4F8083909101028091E4
:100AD00000029817C8F285E8D8CFE091010281E0C2
:100AE0008E0F809301028091BB00F0E0E052FE4F38
:100AF00080838091DF0181115CCF81E08093DE01F2
:100B000084EA8093BC001092DD0126CF85EC8093AF
:100B1000BC001092DD018091DB01803230F4E09165
:100B2000DB01F0E0E554FE4F10826091DB0170E0E4
:100B3000E091B901F091BA018BEB91E00995109227
:100B4000DB010ACF1092DC0134CF1F920F920FB657
:100B50000F9211242F933F938F939F93AF93BF9343
:100B60008091480190914901A0914A01B0914B01B7
:100B70003091470123E0230F2D3758F50196A11D31
:100B8000B11D209347018093480190934901A093A0
:100B90004A01B0934B0180914C0190914D01A0917D
:100BA0004E01B0914F010196A11DB11D80934C01E2
:100BB00090934D01A0934E01B0934F01BF91AF911F
:100BC0009F918F913F912F910F900FBE0F901F908B
:100BD000189526E8230F0296A11DB11DD2CF1F92B2
:100BE0000F920FB60F9211242F933F934F935F9361
:100BF0006F937F938F939F93AF93BF93EF93FF93E5
:100C00008FE092E00E946102FF91EF91BF91AF915E
:100C10009F918F917F916F915F914F913F912F9114
:100C20000F900FBE0F901F9018951F920F920FB646
:100C30000F9211242F938F939F93EF93FF93E09143
:100C40001F02F09120028081E0912502F09126029E
:100C500082FD1BC09081809128028F5F8F7320914D
:100C60002902821741F0E0912802F0E0E15FFD4F98
:100C7000958F80932802FF91EF919F918F912F91F3
:100C80000F900FBE0F901F9018958081F4CFE3E076
:100C9000F2E01382128288EE93E0A0E0B0E0848359
:100CA0009583A683B7832CE031E031832083EFE086
:100CB000F2E01382128284839583A683B7838EE148
:100CC00091E09183808385EC90E09587848784EC24
:100CD00090E09787868780EC90E0918B808B81EC09
:100CE00090E0938B828B82EC90E0958B848B86ECEA
:100CF00090E0978B868B118E128E138E148EECEAF9
:100D0000F2E01382128280E391E09183808387E294
:100D1000848380E1818782E08287138608957894B6
:100D200084B5826084BD84B5816084BD85B58260F0
:100D300085BD85B5816085BD80916E0081608093A1
:100D40006E0010928100809181008260809381000A
:100D5000809181008160809381008091800081601A
:100D6000809380008091B10084608093B100809175
:100D7000B00081608093B00080917A00846080939D
:100D80007A0080917A00826080937A0080917A0064
:100D9000816080937A0080917A00806880937A00E5
:100DA0001092C10082E00E94E3031092920110921F
:100DB000910110929401109293011092DD0181E053
:100DC0008093DF011092DE0161E082E10E94400128
:100DD00061E083E10E9440018091B9008E7F8093A1
:100DE000B9008091B9008D7F8093B90088E4809329
:100DF000B80085E48093BC0088EB90E09093B60146
:100E00008093B50189EB90E09093BA018093B9018A
:100E10001092B1028091B6020E94E303C8E0C09331
:100E2000B70260E08CEA92E00E94F002C093B70241
:100E300060E08CEA92E00E94F002E0911F02F091E3
:100E4000200282E08083E0911B02F0911C0210825C
:100E5000E0911D02F0911E028FEC80831092270218
:100E6000E0912302F091240286E08083E091210248
:100E7000F0912202808180618083E0912102F091D3
:100E80002202808188608083E0912102F091220219
:100E9000808180688083E0912102F091220280812C
:100EA0008F7D808362E4362E79E9872E70E0972E5D
:100EB000C5E8D0E0EDEAAE2EE0E0BE2EFEEF4F2E0C
:100EC000512C612C712C00E010E030927C0080915C
:100ED0007A00806480937A0080917A0086FDFCCF4E
:100EE000909178008091790089279827892797FD2C
:100EF0000396959587959595879590934601809350
:100F000045016C01092E000CEE08FF082AE0B7012C
:100F1000A60197FF0DC06DE28FE092E00E94830270
:100F200044275527BA014C195D096E097F092AE04B
:100F30008FE092E00E94670368E371E08FE092E047
:100F40000E9458032091450130914601F4016491BB
:100F5000FE018491882399F090E0880F991FFC018D
:100F6000E859FF4FA591B491FC01EE58FF4F459110
:100F700054918FB7F8949C91692B6C938FBF211576
:100F8000310509F064C060E089E00E944001609191
:100F90004501709146016115710509F49EC0072E47
:100FA000000C880B990B615071098109910922E0AD
:100FB000660F771F881F991F2A95D1F7A301920109
:100FC0000E9472082F5F3F4F4F4F5F4F3093440195
:100FD0002093430180E00E944F046BE371E08CEAB0
:100FE00092E00E94580381E00E944F04C0904301A8
:100FF000D09044010D2C000CEE08FF082AE0B70148
:10100000A601F7FE0EC041E06DE28CEA92E00E947C
:10101000CC0344275527BA014C195D096E097F0995
:101020002AE08CEA92E00E94670368E371E08CEAB0
:1010300092E00E9458030115110509F446CF0E9461
:101040004D02882309F441CF0E9400003ECF2F3F7C
:10105000310511F461E098CFF5018491833019F1E5
:1010600040F48130B1F08230C9F02038310594F776
:101070008ACF873011F1883041F18430B1F7809107
:10108000800080628093800030938B0020938A00E0
:101090007ECF84B5806884BD27BD79CF84B580625A
:1010A00084BD28BD74CF80918000806880938000CB
:1010B00030938900209388006ACF8091B0008068C7
:1010C0008093B0002093B30062CF8091B000806223
:1010D0008093B0002093B4005ACF10924401109234
:1010E000430178CF052E97FB1EF400940E948908D7
:1010F00057FD07D00E94910807FC03D04EF40C94D2
:10110000890850954095309521953F4F4F4F5F4F3F
:10111000089590958095709561957F4F8F4F9F4F63
:101120000895A1E21A2EAA1BBB1BFD010DC0AA1F28
:10113000BB1FEE1FFF1FA217B307E407F50720F040
:10114000A21BB30BE40BF50B661F771F881F991FBB
:101150001A9469F760957095809590959B01AC0104
:10116000BD01CF010895EE0FFF1F0590F491E02D12
:061170000994F894FFCF82
:101176000000400014005400000000001101E400CB
:101186005503BA00DD00CA00BB0000000000830260
:10119600E3011002D00241021F02330200000000E8
:1011A6008004E301550354030D0A007370656564FA
:0211B6003A00FD
:00000001FF
