:100000000C9453000C942C020C9405020C947B006D
:100010000C947B000C947B000C947B000C947B0074
:100020000C947B000C947B000C947B000C947B0064
:100030000C947B000C947B000C947B000C947B0054
:100040000C94BB010C947B000C9479020C94530229
:100050000C947B000C947B000C947B000C947B0034
:100060000C947B000C947B0000000000250028000D
:100070002B0000000000240027002A0004040404D0
:100080000404040402020202020203030303030342
:10009000010204081020408001020408102001021F
:1000A00004081020040411241FBECFEFD8E0DEBFE7
:1000B000CDBF11E0A0E0B1E0E6EBF8E002C00590B2
:1000C0000D92AA31B107D9F721E0AAE1B1E001C050
:1000D0001D92A23CB207E1F710E0C3E5D0E004C0F6
:1000E0002197FE010E945304C235D107C9F70E942F
:1000F000AB020C9459040C9400003FB7F894809123
:10010000BE019091BF01A091C001B091C10126B57F
:10011000A89B05C02F3F19F00196A11DB11D3FBF3F
:10012000BA2FA92F982F8827BC01CD01620F711D0E
:10013000811D911D42E0660F771F881F991F4A9508
:10014000D1F708950895AF92BF92CF92DF92EF92C8
:10015000FF920F931F93CF93DF936C017B018B0171
:10016000040F151FEB015E01AE18BF08C017D107C1
:1001700059F06991D601ED91FC910190F081E02D4B
:10018000C6010995892B79F7C501DF91CF911F91A0
:100190000F91FF90EF90DF90CF90BF90AF900895B8
:1001A00080911A0190911B01019690931B018093FD
:1001B0001A0108950895FC01538D448D252F30E0D8
:1001C000842F90E0821B930B541710F0CF96089564
:1001D00001970895FC01918D828D981761F0A28D91
:1001E000AE0FBF2FB11D5D968C91928D9F5F9F7357
:1001F000928F90E008958FEF9FEF0895FC01918D0D
:10020000828D981731F0828DE80FF11D858D90E079
:1002100008958FEF9FEF0895FC01918D228D892F16
:1002200090E0805C9F4F821B91098F7399270895FE
:100230008CE191E00E940C0121E0892B09F420E07F
:10024000822F089580E090E0892B29F00E94180108
:1002500081110C9400000895FC01A48DA80FB92F02
:10026000B11DA35ABF4F2C91848D90E001968F73DE
:100270009927848FA689B7892C93A089B1898C91FD
:10028000837080648C93938D848D981306C002884C
:10029000F389E02D80818F7D80830895EF92FF9216
:1002A0000F931F93CF93DF93EC0181E0888F9B8D99
:1002B0008C8D98131AC0E889F989808185FF15C053
:1002C0009FB7F894EE89FF896083E889F989808176
:1002D0008370806480839FBF81E090E0DF91CF9145
:1002E0001F910F91FF90EF900895F62E0B8D10E067
:1002F0000F5F1F4F0F731127E02E8C8D8E110CC0D6
:100300000FB607FCFACFE889F989808185FFF5CF20
:10031000CE010E942C01F1CFEB8DEC0FFD2FF11DD2
:10032000E35AFF4FF0829FB7F8940B8FEA89FB895D
:1003300080818062CFCFCF93DF93EC01888D8823BB
:10034000B9F0AA89BB89E889F9898C9185FD03C038
:10035000808186FD0DC00FB607FCF7CF8C9185FF1D
:10036000F2CF808185FFEDCFCE010E942C01E9CF35
:10037000DF91CF9108951F920F920FB60F92112423
:100380002F933F938F939F93AF93BF938091BA0125
:100390009091BB01A091BC01B091BD013091B90118
:1003A00023E0230F2D3758F50196A11DB11D209391
:1003B000B9018093BA019093BB01A093BC01B093A3
:1003C000BD018091BE019091BF01A091C001B0918B
:1003D000C1010196A11DB11D8093BE019093BF0183
:1003E000A093C001B093C101BF91AF919F918F9134
:1003F0003F912F910F900FBE0F901F90189526E8F8
:10040000230F0296A11DB11DD2CF1F920F920FB6DE
:100410000F9211242F933F934F935F936F937F938A
:100420008F939F93AF93BF93EF93FF93E09102015C
:10043000F09103010995FF91EF91BF91AF919F91C9
:100440008F917F916F915F914F913F912F910F907D
:100450000FBE0F901F9018951F920F920FB60F921C
:1004600011242F933F934F935F936F937F938F93B9
:100470009F93AF93BF93EF93FF93E0910001F091AF
:1004800001010995FF91EF91BF91AF919F918F91DC
:100490007F916F915F914F913F912F910F900FBE80
:1004A0000F901F9018951F920F920FB60F92112464
:1004B0002F933F934F935F936F937F938F939F936C
:1004C000AF93BF93EF93FF938CE191E00E942C01D7
:1004D000FF91EF91BF91AF919F918F917F916F911C
:1004E0005F914F913F912F910F900FBE0F901F90F2
:1004F00018951F920F920FB60F9211242F938F937E
:100500009F93EF93FF93E0912C01F0912D01808157
:10051000E0913201F091330182FD1BC09081809106
:1005200035018F5F8F7320913601821741F0E09182
:100530003501F0E0E45EFE4F958F80933501FF9129
:10054000EF919F918F912F910F900FBE0F901F9061
:1005500018958081F4CFCF93DF93CDB7DEB7A19705
:100560000FB6F894DEBF0FBECDBF789484B582601D
:1005700084BD84B5816084BD85B5826085BD85B547
:10058000816085BD80916E00816080936E001092C5
:100590008100809181008260809381008091810040
:1005A00081608093810080918000816080938000D1
:1005B0008091B10084608093B1008091B00081602F
:1005C0008093B00080917A00846080937A0080915B
:1005D0007A00826080937A0080917A0081608093B3
:1005E0007A0080917A00806880937A001092C1002E
:1005F000E0912C01F0912D0182E08083E0912801AF
:10060000F09129011082E0912A01F0912B018FECE9
:10061000808310923401E0913001F091310186E045
:100620008083E0912E01F0912F0180818061808391
:10063000E0912E01F0912F01808188608083E0910C
:100640002E01F0912F01808180688083E0912E013E
:10065000F0912F0180818F7D8083E0E9F0E024918B
:10066000ECE7F0E084918823C9F090E0880F991FAF
:10067000FC01EE58FF4F45915491FC01E859FF4FA2
:10068000A591B4919FB7F894FA01808120958223B7
:1006900080838C91E22FE823EC939FBF80ED90E064
:1006A00090930101809300018091690083608093A1
:1006B0006900E89A8AED90E090930301809302012B
:1006C00080916900837F886080936900E99A90E453
:1006D000392E2AE0822E912CA12CB12C30927C0054
:1006E00080917A00806480937A0080917A0086FD00
:1006F000FCCF9091780080917900892798278927ED
:100700002C01092E000C6608770897FF67C06DE280
:100710008CE191E00E944E0122273327A901241980
:1007200035094609570919A28E010F5D1F4FCA01ED
:10073000B901A50194010E943104605DF801629342
:100740008F01211531054105510589F70115110565
:1007500061F001900020E9F73197AF01401B510B88
:10076000B8018CE191E00E94A30042E050E066E114
:1007700071E08CE191E00E94A3000E947D006B017A
:100780007C0184E6482E512C612C712C0E947D0046
:100790006C197D098E099F09683E7340810591059A
:1007A000A8F3F1E04F1A51086108710828EEC20E53
:1007B00023E0D21EE11CF11C4114510461047104B8
:1007C00029F780E090E0892B09F488CF0E94180176
:1007D000882309F483CF0E94000080CFA3019201F7
:1007E00019A28E010F5D1F4FCA01B901A501940125
:1007F0000E943104605DF80162938F01211531057B
:100800004105510589F7A2CFECE1F1E01382128294
:1008100088EE93E0A0E0B0E084839583A683B7835D
:1008200088E091E09183808385EC90E095878487D0
:1008300084EC90E09787868780EC90E0918B808BAA
:1008400081EC90E0938B828B82EC90E0958B848B93
:1008500086EC90E0978B868B118E128E138E148E01
:100860000895A1E21A2EAA1BBB1BFD010DC0AA1FF1
:10087000BB1FEE1FFF1FA217B307E407F50720F009
:10088000A21BB30BE40BF50B661F771F881F991F84
:100890001A9469F760957095809590959B01AC01CD
:1008A000BD01CF010895EE0FFF1F0590F491E02DDB
:0608B0000994F894FFCF4B
:1008B600A200A200000000004E01A300DB009B0185
:0A08C6000C01EA00FE000D0A00001C
:00000001FF
