:100000000C9453000C947D020C9456020C947B00CB
:100010000C947B000C947B000C947B000C947B0074
:100020000C947B000C947B000C947B000C947B0064
:100030000C947B000C947B000C947B000C947B0054
:100040000C940C020C947B000C94CA020C94A40235
:100050000C947B000C947B000C947B000C947B0034
:100060000C947B000C947B0000000000250028000D
:100070002B0000000000240027002A0004040404D0
:100080000404040402020202020203030303030342
:10009000010204081020408001020408102001021F
:1000A00004081020FC0211241FBECFEFD8E0DEBFF1
:1000B000CDBF11E0A0E0B1E0E4E4FFE002C00590B4
:1000C0000D92A233B107D9F721E0A2E3B1E001C05C
:1000D0001D92A63EB207E1F710E0C3E5D0E004C0F0
:1000E0002197FE010E949A07C235D107C9F70E94E5
:1000F00047030C94A0070C9400003FB7F89480913C
:100100003B0190913C01A0913D01B0913E0126B58B
:10011000A89B05C02F3F19F00196A11DB11D3FBF3F
:10012000BA2FA92F982F8827BC01CD01620F711D0E
:10013000811D911D42E0660F771F881F991F4A9508
:10014000D1F708950895AF92BF92CF92DF92EF92C8
:10015000FF920F931F93CF93DF936C017B018B0171
:10016000040F151FEB015E01AE18BF08C017D107C1
:1001700059F06991D601ED91FC910190F081E02D4B
:10018000C6010995892B79F7C501DF91CF911F91A0
:100190000F91FF90EF90DF90CF90BF90AF900895B8
:1001A00008958091E4019091E50101969093E50115
:1001B0008093E4010895FC01538D448D252F30E098
:1001C000842F90E0821B930B541710F0CF96089564
:1001D00001970895FC01918D828D981761F0A28D91
:1001E000AE0FBF2FB11D5D968C91928D9F5F9F7357
:1001F000928F90E008958FEF9FEF0895FC01918D0D
:10020000828D981731F0828DE80FF11D858D90E079
:1002100008958FEF9FEF0895FC01918D228D892F16
:1002200090E0805C9F4F821B91098F7399270895FE
:100230008FE391E00E940C0121E0892B09F420E07A
:10024000822F089580E090E0892B29F00E94180108
:1002500081110C9400000895FC01A48DA80FB92F02
:10026000B11DA35ABF4F2C91848D90E001968F73DE
:100270009927848FA689B7892C93A089B1898C91FD
:10028000837080648C93938D848D981306C002884C
:10029000F389E02D80818F7D80830895EF92FF9216
:1002A0000F931F93CF93DF93EC0181E0888F9B8D99
:1002B0008C8D98131AC0E889F989808185FF15C053
:1002C0009FB7F894EE89FF896083E889F989808176
:1002D0008370806480839FBF81E090E0DF91CF9145
:1002E0001F910F91FF90EF900895F62E0B8D10E067
:1002F0000F5F1F4F0F731127E02E8C8D8E110CC0D6
:100300000FB607FCFACFE889F989808185FFF5CF20
:10031000CE010E942C01F1CFEB8DEC0FFD2FF11DD2
:10032000E35AFF4FF0829FB7F8940B8FEA89FB895D
:1003300080818062CFCFCF93DF93EC01888D8823BB
:10034000B9F0AA89BB89E889F9898C9185FD03C038
:10035000808186FD0DC00FB607FCF7CF8C9185FF1D
:10036000F2CF808185FFEDCFCE010E942C01E9CF35
:10037000DF91CF910895FC0101900020E9F73197BA
:10038000AF01481B590BBC018FE391E00C94A30013
:100390008F929F92AF92BF920F931F93CF93DF9351
:1003A000CDB7DEB7A1970FB6F894DEBF0FBECDBFB5
:1003B00019A2423008F44AE08E010F5D1F4F842ECF
:1003C000912CB12CA12CA50194010E945907E62F74
:1003D000B901CA01EA30F4F4E05DD801EE938D0171
:1003E000232B242B252B79F790E080E0109719F030
:1003F000CD010E94BB01A1960FB6F894DEBF0FBEDF
:10040000CDBFDF91CF911F910F91BF90AF909F9083
:100410008F900895E95CE1CF1F920F920FB60F9273
:1004200011242F933F938F939F93AF93BF9380910A
:10043000370190913801A0913901B0913A01309182
:10044000360123E0230F2D3758F50196A11DB11D6C
:10045000209336018093370190933801A09339019E
:10046000B0933A0180913B0190913C01A0913D01F4
:10047000B0913E010196A11DB11D80933B01909367
:100480003C01A0933D01B0933E01BF91AF919F917C
:100490008F913F912F910F900FBE0F901F90189545
:1004A00026E8230F0296A11DB11DD2CF1F920F92F5
:1004B0000FB60F9211242F933F934F935F936F9337
:1004C0007F938F939F93AF93BF93EF93FF93E091AD
:1004D0000201F09103010995FF91EF91BF91AF9156
:1004E0009F918F917F916F915F914F913F912F914C
:1004F0000F900FBE0F901F9018951F920F920FB67E
:100500000F9211242F933F934F935F936F937F9399
:100510008F939F93AF93BF93EF93FF93E09100016D
:10052000F09101010995FF91EF91BF91AF919F91DA
:100530008F917F916F915F914F913F912F910F908C
:100540000FBE0F901F9018951F920F920FB60F922B
:1005500011242F933F934F935F936F937F938F93C8
:100560009F93AF93BF93EF93FF938FE391E00E942C
:100570002C01FF91EF91BF91AF919F918F917F914E
:100580006F915F914F913F912F910F900FBE0F9000
:100590001F9018951F920F920FB60F9211242F9350
:1005A0008F939F93EF93FF93E0914F01F091500150
:1005B0008081E0915501F091560182FD1BC0908130
:1005C000809158018F5F8F7320915901821741F0FC
:1005D000E0915801F0E0E15CFE4F958F8093580167
:1005E000FF91EF919F918F912F910F900FBE0F90E0
:1005F0001F9018958081F4CFEFE3F1E0138212820F
:1006000088EE93E0A0E0B0E084839583A683B7836F
:1006100088E091E09183808385EC90E095878487E2
:1006200084EC90E09787868780EC90E0918B808BBC
:1006300081EC90E0938B828B82EC90E0958B848BA5
:1006400086EC90E0978B868B118E128E138E148E13
:100650006091E4017091E501072E000C880B990B65
:100660002091E0013091E1014091E2015091E301DC
:100670000E947B07CA01B9010E9432066093DC0127
:100680007093DD018093DE019093DF0108957894EB
:1006900084B5826084BD84B5816084BD85B5826087
:1006A00085BD85B5816085BD80916E008160809338
:1006B0006E001092810080918100826080938100A1
:1006C00080918100816080938100809180008160B1
:1006D000809380008091B10084608093B10080910C
:1006E000B00081608093B00080917A008460809334
:1006F0007A0080917A00826080937A0080917A00FB
:10070000816080937A0080917A00806880937A007B
:100710001092C100E0914F01F091500182E080837E
:10072000E0914B01F0914C011082E0914D01F0916C
:100730004E018FEC808310925701E0915301F091AC
:10074000540186E08083E0915101F0915201808153
:1007500080618083E0915101F09152018081886035
:100760008083E0915101F091520180818068808303
:10077000E0915101F091520180818F7D8083E2E907
:10078000F0E02491EEE7F0E084918823C1F090E05E
:10079000880F991FFC01EE58FF4FC591D491FC01C1
:1007A000E859FF4FA591B4919FB7F8943881822FF3
:1007B000809583238883EC91E22BEC939FBFE8E93B
:1007C000F0E02491E4E8F0E08491882399F090E04F
:1007D000880F991FFC01EE58FF4FA591B491FC01C1
:1007E000E859FF4F859194918FB7F894EC91E22BE3
:1007F000EC938FBF80ED90E0909303018093020112
:1008000080916900837F886080936900E99A81ED17
:1008100090E09093010180930001809169008360D2
:1008200080936900E89A98EE892E93E0992EA12C86
:10083000B12CC2EAD0E020ED222E20E0322E01EDD4
:1008400010E08FB7F89440913701509138016091D2
:10085000390170913A018FBF4093E0015093E1015B
:100860006093E2017093E301809132019091330132
:10087000A0913401B091350188519C4FAF4FBF4FCB
:1008800084179507A607B7070CF06EC0E998D093B8
:100890000301C0930201E898D0930101C0930001C5
:1008A000C090E401D090E5010D2C000CEE08FF088B
:1008B0006091E0017091E1018091E2019091E3018A
:1008C00040903201509033016090340170903501B6
:1008D0006419750986099709A50194010E947B078F
:1008E000C701B6010E947B07CA01B9010E94320606
:1008F0006093DC017093DD018093DE019093DF0152
:100900002FB7F8948091370190913801A091390167
:10091000B0913A012FBF8093320190933301A0939D
:100920003401B09335011092E5011092E401309248
:1009300003012092020180916900837F8860809387
:100940006900E99A10930101009300018091690008
:10095000836080936900E89A86E191E00E94BB0180
:1009600083E291E00E94BB01C090DC01D090DD01E8
:10097000E090DE01F090DF01A7019601C701B6010A
:100980000E9454078823C9F186E291E00E94BB01CE
:1009900083E291E00E94BB010E947D006B017C011B
:1009A00084E6482E512C612C712C0E947D006C191C
:1009B0007D098E099F09683E734081059105A8F362
:1009C00021E0421A51086108710888EEC80E83E0E0
:1009D000D81EE11CF11C411451046104710429F773
:1009E00080E090E0892B09F42CCF0E941801882325
:1009F00009F427CF0E94000024CF26013701E89494
:100A000077F82FEF3FEF4FE75FE7C301B2010E9496
:100A1000540781110DC02FEF3FEF4FE75FE7C30190
:100A2000B2010E94FC0518161CF48AE291E0AECFD8
:100A30002FEF3FEF4FE75FE4C701B6010E94E206E8
:100A400018161CF48EE291E0A1CF2FEF3FEF4FE795
:100A50005FECC701B6010E94FC0587FDF3CF20E0E3
:100A600030E0A901C701B6010E94FC0587FF09C05B
:100A70006DE28FE391E00E944E01F7FAF094F7F8EF
:100A8000F0942AE037ED43EA5BE3C701B6010E9428
:100A900090052B013C010E9401066B017C010E9424
:100AA00030069B01AC01C301B2010E948F052B01EE
:100AB0003C014AE0C701B6010E94C8016EE28FE323
:100AC00091E00E944E0120E030E040E251E4C30199
:100AD000B2010E94E7062B013C010E9401066B0156
:100AE000F12CE12C4AE0C701B6010E94C801C70100
:100AF000B6010E9430069B01AC01C301B2010E9405
:100B00008F0520E030E040E251E40E94E7060E94B9
:100B1000010690E080E04AE00E94C80139CF5058B9
:100B2000BB27AA270E94A7050C94A8060E949A0634
:100B300038F00E94A10620F039F49F3F19F426F402
:100B40000C9497060EF4E095E7FB0C949106E92FC0
:100B50000E94B90658F3BA1762077307840795070E
:100B600020F079F4A6F50C94DB060EF4E0950B2E3C
:100B7000BA2FA02D0B01B90190010C01CA01A001EF
:100B80001124FF27591B99F0593F50F4503E68F14A
:100B90001A16F040A22F232F342F4427585FF3CF8B
:100BA000469537952795A795F0405395C9F77EF45C
:100BB0001F16BA0B620B730B840BBAF09150A1F0A5
:100BC000FF0FBB1F661F771F881FC2F70EC0BA0F2B
:100BD000621F731F841F48F4879577956795B795B3
:100BE000F7959E3F08F0B0CF9395880F08F09927AE
:100BF000EE0F9795879508950E946D0608F481E0A1
:100C000008950E94C10688F09F5798F0B92F992740
:100C1000B751B0F0E1F0660F771F881F991F1AF0E7
:100C2000BA95C9F714C0B13091F00E94DB06B1E06B
:100C300008950C94DB06672F782F8827B85F39F06A
:100C4000B93FCCF3869577956795B395D9F73EF480
:100C500090958095709561957F4F8F4F9F4F089528
:100C6000E89409C097FB3EF4909580957095619546
:100C70007F4F8F4F9F4F9923A9F0F92F96E9BB27FC
:100C80009395F695879577956795B795F111F8CF78
:100C9000FAF4BB0F11F460FF1BC06F5F7F4F8F4FE3
:100CA0009F4F16C0882311F096E911C0772321F0D9
:100CB0009EE8872F762F05C0662371F096E8862F71
:100CC00070E060E02AF09A95660F771F881FDAF7C8
:100CD000880F9695879597F90895990F0008550FF5
:100CE000AA0BE0E8FEEF16161706E807F907C0F0B2
:100CF00012161306E407F50798F0621B730B840BBA
:100D0000950B39F40A2661F0232B242B252B21F493
:100D100008950A2609F4A140A6958FEF811D811D33
:100D2000089597F99F6780E870E060E008959FEF6D
:100D300080EC089500240A94161617061806090672
:100D4000089500240A941216130614060506089541
:100D5000092E0394000C11F4882352F0BB0F40F4C9
:100D6000BF2B11F460FF04C06F5F7F4F8F4F9F4F09
:100D7000089557FD9058440F551F59F05F3F71F08B
:100D80004795880F97FB991F61F09F3F79F08795F2
:100D90000895121613061406551FF2CF4695F1DF7B
:100DA00008C0161617061806991FF1CF869571050B
:100DB000610508940895E894BB2766277727CB013F
:100DC00097F908950E946D0608F48FEF08950E9428
:100DD000FA060C94A8060E949A0638F00E94A10612
:100DE00020F0952311F00C9491060C949706112491
:100DF0000C94DC060E94B90670F3959FC1F3950F21
:100E000050E0551F629FF001729FBB27F00DB11D8E
:100E1000639FAA27F00DB11DAA1F649F6627B00D1E
:100E2000A11D661F829F2227B00DA11D621F739F07
:100E3000B00DA11D621F839FA00D611D221F749F15
:100E40003327A00D611D231F849F600D211D822F5C
:100E5000762F6A2F11249F5750409AF0F1F0882383
:100E60004AF0EE0FFF1FBB1F661F771F881F9150B0
:100E70005040A9F79E3F510580F00C9491060C94C8
:100E8000DC065F3FE4F3983ED4F38695779567954B
:100E9000B795F795E7959F5FC1F7FE2B880F911DDA
:100EA0009695879597F908950E946D06880B990B82
:100EB0000895A1E21A2EAA1BBB1BFD010DC0AA1F9B
:100EC000BB1FEE1FFF1FA217B307E407F50720F0B3
:100ED000A21BB30BE40BF50B661F771F881F991F2E
:100EE0001A9469F760957095809590959B01AC0177
:100EF000BD01CF010895052E97FB1EF400940E94BA
:100F0000920757FD07D00E94590707FC03D04EF403
:100F10000C94920750954095309521953F4F4F4F37
:100F20005F4F089590958095709561957F4F8F4F95
:100F30009F4F0895EE0FFF1F0590F491E02D099447
:040F4000F894FFCF53
:100F4400A200A200000000004E01A300DB009B01F0
:100F54000C01EA00FE0074696D65203E20313030DA
:100F64003021000D0A006E616E00696E66006F76B6
:020F7400660015
:00000001FF
