:100000000C9453000C9425020C94FE010C947B007C
:100010000C947B000C947B000C947B000C947B0074
:100020000C947B000C947B000C947B000C947B0064
:100030000C947B000C947B000C947B000C947B0054
:100040000C94B4010C947B000C9472020C944C023E
:100050000C947B000C947B000C947B000C947B0034
:100060000C947B000C947B0000000000250028000D
:100070002B0000000000240027002A0004040404D0
:100080000404040402020202020203030303030342
:10009000010204081020408001020408102001021F
:1000A00004081020A40211241FBECFEFD8E0DEBF49
:1000B000CDBF11E0A0E0B1E0E4E1F8E002C00590BE
:1000C0000D92AA31B107D9F721E0AAE1B1E001C050
:1000D0001D92A03CB207E1F710E0C3E5D0E004C0F8
:1000E0002197FE010E940204C235D107C9F70E9480
:1000F000F7020C9408040C9400003FB7F894809128
:100100001F0190912001A0912101B091220126B5FB
:10011000A89B05C02F3F19F00196A11DB11D3FBF3F
:10012000BA2FA92F982F8827BC01CD01620F711D0E
:10013000811D911D42E0660F771F881F991F4A9508
:10014000D1F708950895AF92BF92CF92DF92EF92C8
:10015000FF920F931F93CF93DF936C017B018B0171
:10016000040F151FEB015E01AE18BF08C017D107C1
:1001700059F06991D601ED91FC910190F081E02D4B
:10018000C6010995892B79F7C501DF91CF911F91A0
:100190000F91FF90EF90DF90CF90BF90AF900895B8
:1001A0000895FC01538D448D252F30E0842F90E07D
:1001B000821B930B541710F0CF9608950197089562
:1001C000FC01918D828D981761F0A28DAE0FBF2F2B
:1001D000B11D5D968C91928D9F5F9F73928F90E081
:1001E00008958FEF9FEF0895FC01918D828D9817F0
:1001F00031F0828DE80FF11D858D90E008958FEF2D
:100200009FEF0895FC01918D228D892F90E0805CF5
:100210009F4F821B91098F739927089583E291E084
:100220000E94020121E0892B09F420E0822F089529
:1002300080E090E0892B29F00E940E0181110C943E
:1002400000000895FC01A48DA80FB92FB11DA35A79
:10025000BF4F2C91848D90E001968F739927848FE6
:10026000A689B7892C93A089B1898C918370806409
:100270008C93938D848D981306C00288F389E02DAA
:1002800080818F7D80830895EF92FF920F931F935B
:10029000CF93DF93EC0181E0888F9B8D8C8D981339
:1002A0001AC0E889F989808185FF15C09FB7F89445
:1002B000EE89FF896083E889F98980818370806491
:1002C00080839FBF81E090E0DF91CF911F910F91DC
:1002D000FF90EF900895F62E0B8D10E00F5F1F4FEB
:1002E0000F731127E02E8C8D8E110CC00FB607FCFA
:1002F000FACFE889F989808185FFF5CFCE010E9488
:100300002201F1CFEB8DEC0FFD2FF11DE35AFF4FD2
:10031000F0829FB7F8940B8FEA89FB898081806215
:10032000CFCFCF93DF93EC01888D8823B9F0AA89D2
:10033000BB89E889F9898C9185FD03C0808186FDA0
:100340000DC00FB607FCF7CF8C9185FFF2CF8081EF
:1003500085FFEDCFCE010E942201E9CFDF91CF9141
:10036000089590E080E008951F920F920FB60F92CB
:1003700011242F933F938F939F93AF93BF938091BB
:100380001B0190911C01A0911D01B0911E013091A3
:100390001A0123E0230F2D3758F50196A11DB11D39
:1003A00020931A0180931B0190931C01A0931D01BF
:1003B000B0931E0180911F0190912001A091210115
:1003C000B09122010196A11DB11D80931F01909350
:1003D0002001A0932101B0932201BF91AF919F9181
:1003E0008F913F912F910F900FBE0F901F901895F6
:1003F00026E8230F0296A11DB11DD2CF1F920F92A6
:100400000FB60F9211242F933F934F935F936F93E7
:100410007F938F939F93AF93BF93EF93FF93E0915D
:100420000201F09103010995FF91EF91BF91AF9106
:100430009F918F917F916F915F914F913F912F91FC
:100440000F900FBE0F901F9018951F920F920FB62E
:100450000F9211242F933F934F935F936F937F934A
:100460008F939F93AF93BF93EF93FF93E09100011E
:10047000F09101010995FF91EF91BF91AF919F918B
:100480008F917F916F915F914F913F912F910F903D
:100490000FBE0F901F9018951F920F920FB60F92DC
:1004A00011242F933F934F935F936F937F938F9379
:1004B0009F93AF93BF93EF93FF9383E291E00E94EA
:1004C0002201FF91EF91BF91AF919F918F917F9109
:1004D0006F915F914F913F912F910F900FBE0F90B1
:1004E0001F9018951F920F920FB60F9211242F9301
:1004F0008F939F93EF93FF93E0913301F091340139
:100500008081E0913901F0913A0182FD1BC0908118
:1005100080913C018F5F8F7320913D01821741F0E4
:10052000E0913C01F0E0ED5DFE4F958F80933C0142
:10053000FF91EF919F918F912F910F900FBE0F9090
:100540001F9018958081F4CF1092260110922501FA
:1005500088EE93E0A0E0B0E080932701909328011B
:10056000A0932901B0932A0188E091E0909324019F
:100570008093230185EC90E09093300180932F01CC
:1005800084EC90E0909332018093310180EC90E014
:10059000909334018093330181EC90E09093360185
:1005A0008093350182EC90E090933801809337017D
:1005B00086EC90E090933A018093390110923C01CF
:1005C00010923D0110923E0110923F0182E480930F
:1005D0007C0080917A00806480937A0080917A0018
:1005E00086FDFCCF80917800809179000895CF93AB
:1005F000DF93CDB7DEB7A1970FB6F894DEBF0FBE7D
:10060000CDBF789484B5826084BD84B5816084BD9B
:1006100085B5826085BD85B5816085BD80916E00A0
:10062000816080936E0010928100809181008260D1
:10063000809381008091810081608093810080910E
:1006400080008160809380008091B10084608093FD
:10065000B1008091B00081608093B00080917A00F9
:10066000846080937A0080917A00826080937A001F
:1006700080917A00816080937A0080917A0080680E
:1006800080937A001092C100E0913301F09134011F
:1006900082E08083E0912F01F09130011082E0919F
:1006A0003101F09132018FEC808310923B01E09197
:1006B0003701F091380186E08083E0913501F091B7
:1006C0003601808180618083E0913501F0913601AF
:1006D000808188608083E0913501F09136018081CE
:1006E00080688083E0913501F091360180818F7DB3
:1006F0008083E2E9F0E02491EEE7F0E08491882342
:10070000C9F090E0880F991FFC01EE58FF4F45910A
:100710005491FC01E859FF4FA591B4919FB7F8940B
:10072000FA013081822F809583238083EC91E22B24
:10073000EC939FBF81EB91E09093030180930201C2
:1007400080916900837F886080936900E99A80EDD9
:1007500090E0909301018093000180916900836093
:1007600080936900E89A90E3D92E8E01005E1F4FB6
:1007700020E0E22E20E0F22E19A2D8A2F80101908A
:100780000020E9F73197AF01401B510BB80183E21C
:1007900091E00E94A30042E050E066E171E083E254
:1007A00091E00E94A3000E947D002B013C0184E6A1
:1007B000882E912CA12CB12C0E947D006419750902
:1007C00086099709683E734081059105A8F3F1E019
:1007D0008F1A9108A108B10828EE420E23E0521E9C
:1007E000611C711C81149104A104B10429F7E11466
:1007F000F10411F20E940E01882309F4BDCF0E947A
:100800000000BACFEE0FFF1F0590F491E02D099480
:04081000F894FFCF8A
:10081400A200A200000000004401A300D100910145
:0A0824000201E000F4000D0A0000DC
:00000001FF
