:100000000C9453000C948D020C9466020C947B00AB
:100010000C947B000C947B000C947B000C947B0074
:100020000C947B000C947B000C947B000C947B0064
:100030000C947B000C947B000C947B000C947B0054
:100040000C941C020C947B000C94DA020C94B40205
:100050000C947B000C947B000C947B000C947B0034
:100060000C947B000C947B0000000000250028000D
:100070002B0000000000240027002A0004040404D0
:100080000404040402020202020203030303030342
:10009000010204081020408001020408102001021F
:1000A000040810200C0311241FBECFEFD8E0DEBFE0
:1000B000CDBF11E0A0E0B1E0ECE8F9E002C00590AE
:1000C0000D92AC31B107D9F721E0ACE1B1E001C04C
:1000D0001D92A63CB207E1F710E0C3E5D0E004C0F2
:1000E0002197FE010E94BE04C235D107C9F70E94C4
:1000F0005F030C94C4040C9400003FB7F894809103
:10010000230190912401A0912501B091260126B5EB
:10011000A89B05C02F3F19F00196A11DB11D3FBF3F
:10012000BA2FA92F982F8827BC01CD01620F711D0E
:10013000811D911D42E0660F771F881F991F4A9508
:10014000D1F708950895AF92BF92CF92DF92EF92C8
:10015000FF920F931F93CF93DF936C017B018B0171
:10016000040F151FEB015E01AE18BF08C017D107C1
:1001700059F06991D601ED91FC910190F081E02D4B
:10018000C6010995892B79F7C501DF91CF911F91A0
:100190000F91FF90EF90DF90CF90BF90AF900895B8
:1001A00010921D0110921C010895FC01538D448D85
:1001B000252F30E0842F90E0821B930B541710F012
:1001C000CF96089501970895FC01918D828D98171F
:1001D00061F0A28DAE0FBF2FB11D5D968C91928DF7
:1001E0009F5F9F73928F90E008958FEF9FEF089528
:1001F000FC01918D828D981731F0828DE80FF11DF1
:10020000858D90E008958FEF9FEF0895FC01918D0B
:10021000228D892F90E0805C9F4F821B91098F7304
:100220009927089587E291E00E94060121E0892B39
:1002300009F420E0822F089580E090E0892B29F0D6
:100240000E94120181110C9400000895FC01A48DFC
:10025000A80FB92FB11DA35ABF4F2C91848D90E0E8
:1002600001968F739927848FA689B7892C93A089CB
:10027000B1898C91837080648C93938D848D981355
:1002800006C00288F389E02D80818F7D80830895E8
:10029000EF92FF920F931F93CF93DF93EC0181E0D6
:1002A000888F9B8D8C8D98131AC0E889F98980817D
:1002B00085FF15C09FB7F894EE89FF896083E889B0
:1002C000F98980818370806480839FBF81E090E0A2
:1002D000DF91CF911F910F91FF90EF900895F62E2F
:1002E0000B8D10E00F5F1F4F0F731127E02E8C8DC9
:1002F0008E110CC00FB607FCFACFE889F98980810E
:1003000085FFF5CFCE010E942601F1CFEB8DEC0FDA
:10031000FD2FF11DE35AFF4FF0829FB7F8940B8F2A
:10032000EA89FB8980818062CFCFCF93DF93EC0194
:10033000888D8823B9F0AA89BB89E889F9898C91CD
:1003400085FD03C0808186FD0DC00FB607FCF7CF89
:100350008C9185FFF2CF808185FFEDCFCE010E9489
:100360002601E9CFDF91CF91089580911C019091F2
:100370001D01892B79F48091C4019091C5010196EA
:100380009093C5018093C40181E090E090931D019A
:1003900080931C010895FC0101900020E9F731973A
:1003A000AF01481B590BBC0187E291E00C94A300FC
:1003B0008F929F92AF92BF920F931F93CF93DF9331
:1003C000CDB7DEB7A1970FB6F894DEBF0FBECDBF95
:1003D00019A2423008F44AE08E010F5D1F4F842EAF
:1003E000912CB12CA12CA50194010E949C04E62F14
:1003F000B901CA01EA30F4F4E05DD801EE938D0151
:10040000232B242B252B79F790E080E0109719F00F
:10041000CD010E94CB01A1960FB6F894DEBF0FBEAE
:10042000CDBFDF91CF911F910F91BF90AF909F9063
:100430008F900895E95CE1CF1F920F920FB60F9253
:1004400011242F933F938F939F93AF93BF938091EA
:100450001F0190912001A0912101B09122013091C2
:100460001E0123E0230F2D3758F50196A11DB11D64
:1004700020931E0180931F0190932001A0932101DE
:10048000B09322018091230190912401A091250134
:10049000B09126010196A11DB11D80932301909377
:1004A0002401A0932501B0932601BF91AF919F91A4
:1004B0008F913F912F910F900FBE0F901F90189525
:1004C00026E8230F0296A11DB11DD2CF1F920F92D5
:1004D0000FB60F9211242F933F934F935F936F9317
:1004E0007F938F939F93AF93BF93EF93FF93E0918D
:1004F0000201F09103010995FF91EF91BF91AF9136
:100500009F918F917F916F915F914F913F912F912B
:100510000F900FBE0F901F9018951F920F920FB65D
:100520000F9211242F933F934F935F936F937F9379
:100530008F939F93AF93BF93EF93FF93E09100014D
:10054000F09101010995FF91EF91BF91AF919F91BA
:100550008F917F916F915F914F913F912F910F906C
:100560000FBE0F901F9018951F920F920FB60F920B
:1005700011242F933F934F935F936F937F938F93A8
:100580009F93AF93BF93EF93FF9387E291E00E9415
:100590002601FF91EF91BF91AF919F918F917F9134
:1005A0006F915F914F913F912F910F900FBE0F90E0
:1005B0001F9018951F920F920FB60F9211242F9330
:1005C0008F939F93EF93FF93E0913701F091380160
:1005D0008081E0913D01F0913E0182FD1BC0908140
:1005E000809140018F5F8F7320914101821741F00C
:1005F000E0914001F0E0E95DFE4F958F809340016E
:10060000FF91EF919F918F912F910F900FBE0F90BF
:100610001F9018958081F4CF10922A011092290121
:1006200088EE93E0A0E0B0E080932B0190932C0142
:10063000A0932D01B0932E0188E091E090932801C2
:100640008093270185EC90E09093340180933301EF
:1006500084EC90E0909336018093350180EC90E03B
:10066000909338018093370181EC90E090933A01A8
:100670008093390182EC90E090933C0180933B01A0
:1006800086EC90E090933E0180933D0110924001F2
:1006900010924101109242011092430182E4809332
:1006A0007C0080917A00806480937A0080917A0047
:1006B00086FDFCCF80917800809179000895789430
:1006C00084B5826084BD84B5816084BD85B5826057
:1006D00085BD85B5816085BD80916E008160809308
:1006E0006E00109281008091810082608093810071
:1006F0008091810081608093810080918000816081
:10070000809380008091B10084608093B1008091DB
:10071000B00081608093B00080917A008460809303
:100720007A0080917A00826080937A0080917A00CA
:10073000816080937A0080917A00806880937A004B
:100740001092C100E0913701F091380182E080837E
:10075000E0913301F09134011082E0913501F09184
:1007600036018FEC808310923F01E0913B01F091C4
:100770003C0186E08083E0913901F0913A0180816B
:1007800080618083E0913901F0913A018081886035
:100790008083E0913901F0913A0180818068808303
:1007A000E0913901F0913A0180818F7D8083E2E907
:1007B000F0E02491EEE7F0E084918823C1F090E02E
:1007C000880F991FFC01EE58FF4FC591D491FC0191
:1007D000E859FF4FA591B4919FB7F8943881822FC3
:1007E000809583238883EC91E22BEC939FBFE8E90B
:1007F000F0E02491E4E8F0E08491882399F090E01F
:10080000880F991FFC01EE58FF4FA591B491FC0190
:10081000E859FF4F859194918FB7F894EC91E22BB2
:10082000EC938FBF80ED90E09093030180930201E1
:1008300080916900837F886080936900E99A85EBE5
:1008400091E09093010180930001809169008360A1
:1008500080936900E89AC0E0D0E0C0901C01D0907D
:100860001D010D2C000CEE08FF084AE0C701B6017F
:10087000F7FE0DC06DE287E291E00E944801662715
:100880007727CB016C197D098E099F094AE00E94E8
:10089000D80186E191E00E94CB01C090C401D090C4
:1008A000C5010D2C000CEE08FF084AE0C701B60197
:1008B000F7FE0DC06DE287E291E00E9448016627D5
:1008C0007727CB016C197D098E099F094AE00E94A8
:1008D000D80188E191E00E94CB010E947D004B018C
:1008E0005C0184E6C82ED12CE12CF12C0E947D0005
:1008F000681979098A099B09683E73408105910549
:10090000A8F321E0C21AD108E108F10888EE880EA8
:1009100083E0981EA11CB11CC114D104E104F104B0
:1009200029F7209709F499CF0E941201882309F42E
:1009300094CF0E94000091CFA1E21A2EAA1BBB1BEC
:10094000FD010DC0AA1FBB1FEE1FFF1FA217B3079B
:10095000E407F50720F0A21BB30BE40BF50B661FB1
:10096000771F881F991F1A9469F760957095809575
:1009700090959B01AC01BD01CF010895EE0FFF1FC3
:0C0980000590F491E02D0994F894FFCF4D
:10098C00A200A200000000004801A300D5009501C0
:0C099C000601E400F80009000D0A00004C
:00000001FF
