:100000000C9453000C9476020C944F020C947B00D9
:100010000C947B000C947B000C947B000C947B0074
:100020000C947B000C947B000C947B000C947B0064
:100030000C947B000C947B000C947B000C947B0054
:100040000C9405020C947B000C94C3020C949D024A
:100050000C947B000C947B000C947B000C947B0034
:100060000C947B000C947B0000000000250028000D
:100070002B0000000000240027002A0004040404D0
:100080000404040402020202020203030303030342
:10009000010204081020408001020408102001021F
:1000A00004081020F50211241FBECFEFD8E0DEBFF8
:1000B000CDBF11E0A0E0B1E0E2E8FFE002C00590B2
:1000C0000D92A233B107D9F721E0A2E3B1E001C05C
:1000D0001D92A63EB207E1F710E0C3E5D0E004C0F0
:1000E0002197FE010E94B907C235D107C9F70E94C6
:1000F00066030C94BF070C9400003FB7F8948091FE
:100100003B0190913C01A0913D01B0913E0126B58B
:10011000A89B05C02F3F19F00196A11DB11D3FBF3F
:10012000BA2FA92F982F8827BC01CD01620F711D0E
:10013000811D911D42E0660F771F881F991F4A9508
:10014000D1F708950895AF92BF92CF92DF92EF92C8
:10015000FF920F931F93CF93DF936C017B018B0171
:10016000040F151FEB015E01AE18BF08C017D107C1
:1001700059F06991D601ED91FC910190F081E02D4B
:10018000C6010995892B79F7C501DF91CF911F91A0
:100190000F91FF90EF90DF90CF90BF90AF900895B8
:1001A0000895FC01538D448D252F30E0842F90E07D
:1001B000821B930B541710F0CF9608950197089562
:1001C000FC01918D828D981761F0A28DAE0FBF2F2B
:1001D000B11D5D968C91928D9F5F9F73928F90E081
:1001E00008958FEF9FEF0895FC01918D828D9817F0
:1001F00031F0828DE80FF11D858D90E008958FEF2D
:100200009FEF0895FC01918D228D892F90E0805CF5
:100210009F4F821B91098F73992708958FE391E077
:100220000E94020121E0892B09F420E0822F089529
:1002300080E090E0892B29F00E940E0181110C943E
:1002400000000895FC01A48DA80FB92FB11DA35A79
:10025000BF4F2C91848D90E001968F739927848FE6
:10026000A689B7892C93A089B1898C918370806409
:100270008C93938D848D981306C00288F389E02DAA
:1002800080818F7D80830895EF92FF920F931F935B
:10029000CF93DF93EC0181E0888F9B8D8C8D981339
:1002A0001AC0E889F989808185FF15C09FB7F89445
:1002B000EE89FF896083E889F98980818370806491
:1002C00080839FBF81E090E0DF91CF911F910F91DC
:1002D000FF90EF900895F62E0B8D10E00F5F1F4FEB
:1002E0000F731127E02E8C8D8E110CC00FB607FCFA
:1002F000FACFE889F989808185FFF5CFCE010E9488
:100300002201F1CFEB8DEC0FFD2FF11DE35AFF4FD2
:10031000F0829FB7F8940B8FEA89FB898081806215
:10032000CFCFCF93DF93EC01888D8823B9F0AA89D2
:10033000BB89E889F9898C9185FD03C0808186FDA0
:100340000DC00FB607FCF7CF8C9185FFF2CF8081EF
:1003500085FFEDCFCE010E942201E9CFDF91CF9141
:10036000089590E080E00895FC0101900020E9F7F5
:100370003197AF01481B590BBC018FE391E00C94FE
:10038000A3008F929F92AF92BF920F931F93CF9330
:10039000DF93CDB7DEB7A1970FB6F894DEBF0FBEDF
:1003A000CDBF19A2423008F44AE08E010F5D1F4F05
:1003B000842E912CB12CA12CA50194010E947807C8
:1003C000E62FB901CA01EA30F4F4E05DD801EE93FA
:1003D0008D01232B242B252B79F790E080E01097BB
:1003E00019F0CD010E94B401A1960FB6F894DEBFBA
:1003F0000FBECDBFDF91CF911F910F91BF90AF90F6
:100400009F908F900895E95CE1CF1F920F920FB6F5
:100410000F9211242F933F938F939F93AF93BF938A
:100420008091370190913801A0913901B0913A0142
:100430003091360123E0230F2D3758F50196A11D89
:10044000B11D209336018093370190933801A0931A
:100450003901B0933A0180913B0190913C01A09108
:100460003D01B0913E010196A11DB11D80933B015C
:1004700090933C01A0933D01B0933E01BF91AF9199
:100480009F918F913F912F910F900FBE0F901F90D2
:10049000189526E8230F0296A11DB11DD2CF1F92F9
:1004A0000F920FB60F9211242F933F934F935F93A8
:1004B0006F937F938F939F93AF93BF93EF93FF932C
:1004C000E0910201F09103010995FF91EF91BF9135
:1004D000AF919F918F917F916F915F914F913F91DC
:1004E0002F910F900FBE0F901F9018951F920F9293
:1004F0000FB60F9211242F933F934F935F936F93F7
:100500007F938F939F93AF93BF93EF93FF93E0916C
:100510000001F09101010995FF91EF91BF91AF9119
:100520009F918F917F916F915F914F913F912F910B
:100530000F900FBE0F901F9018951F920F920FB63D
:100540000F9211242F933F934F935F936F937F9359
:100550008F939F93AF93BF93EF93FF938FE391E0BC
:100560000E942201FF91EF91BF91AF919F918F91D6
:100570007F916F915F914F913F912F910F900FBE9F
:100580000F901F9018951F920F920FB60F92112483
:100590002F938F939F93EF93FF93E0914F01F091EF
:1005A00050018081E0915501F091560182FD1BC000
:1005B0009081809158018F5F8F732091590182172C
:1005C00041F0E0915801F0E0E15CFE4F958F80939F
:1005D0005801FF91EF919F918F912F910F900FBE36
:1005E0000F901F9018958081F4CF109242011092C5
:1005F000410188EE93E0A0E0B0E080934301909346
:100600004401A0934501B093460188E091E09093A6
:10061000400180933F0185EC90E090934C018093E2
:100620004B0184EC90E090934E0180934D0180EC5F
:1006300090E09093500180934F0181EC90E0909373
:1006400052018093510182EC90E090935401809389
:10065000530186EC90E090935601809355011092DF
:1006600058011092590110925A0110925B0182E4D4
:1006700080937C0080917A00806480937A008091DE
:100680007A0086FDFCCF809178008091790060919E
:10069000E4017091E501072E000C880B990B209165
:1006A000E0013091E1014091E2015091E3010E94AB
:1006B0009A07CA01B9010E9451066093DC01709348
:1006C000DD018093DE019093DF010895789484B575
:1006D000826084BD84B5816084BD85B5826085BD3E
:1006E00085B5816085BD80916E00816080936E00CC
:1006F00010928100809181008260809381008091BE
:10070000810081608093810080918000816080936E
:1007100080008091B10084608093B1008091B0002E
:1007200081608093B00080917A00846080937A0029
:1007300080917A00826080937A0080917A00816053
:1007400080937A0080917A00806880937A0010927A
:10075000C100E0914F01F091500182E08083E0916F
:100760004B01F0914C011082E0914D01F0914E014E
:100770008FEC808310925701E0915301F091540166
:1007800086E08083E0915101F09152018081806187
:100790008083E0915101F0915201808188608083D3
:1007A000E0915101F0915201808180688083E09155
:1007B0005101F091520180818F7D8083E2E9F0E068
:1007C0002491EEE7F0E084918823C1F090E0880F57
:1007D000991FFC01EE58FF4FC591D491FC01E859D7
:1007E000FF4FA591B4919FB7F8943881822F8095DF
:1007F00083238883EC91E22BEC939FBFE8E9F0E040
:100800002491E4E8F0E08491882399F090E0880F47
:10081000991FFC01EE58FF4FA591B491FC01E859D6
:10082000FF4F859194918FB7F894EC91E22BEC9364
:100830008FBF81EB91E0909303018093020180913F
:100840006900837F886080936900E99A80ED90E079
:1008500090930101809300018091690083608093EF
:100860006900E89A98EE892E93E0992EA12CB12C7C
:10087000C2EAD0E021EB222E21E0322E00ED10E082
:100880008FB7F89440913701509138016091390148
:1008900070913A018FBF4093E0015093E101609362
:1008A000E2017093E3018091320190913301A091B4
:1008B0003401B091350188519C4FAF4FBF4F841721
:1008C0009507A607B7070CF06EC0E998D09303010F
:1008D000C0930201E898D0930101C0930001C09039
:1008E000E401D090E5010D2C000CEE08FF086091AA
:1008F000E0017091E1018091E2019091E30140906B
:1009000032015090330160903401709035016419C8
:10091000750986099709A50194010E949A07C701E4
:10092000B6010E949A07CA01B9010E94510660935C
:10093000DC017093DD018093DE019093DF012FB71E
:10094000F8948091370190913801A0913901B091CC
:100950003A012FBF8093320190933301A093340169
:10096000B09335011092E5011092E4013092030139
:100970002092020180916900837F886080936900E2
:10098000E99A10930101009300018091690083604E
:1009900080936900E89A86E191E00E94B40183E2C5
:1009A00091E00E94B401C090DC01D090DD01E090A4
:1009B000DE01F090DF01A7019601C701B6010E9498
:1009C00073078823C9F186E291E00E94B40183E2B3
:1009D00091E00E94B4010E947D006B017C0184E6DD
:1009E000482E512C612C712C0E947D006C197D09C0
:1009F0008E099F09683E734081059105A8F321E0A7
:100A0000421A51086108710888EEC80E83E0D81EAA
:100A1000E11CF11C411451046104710429F780E0C8
:100A200090E0892B09F42CCF0E940E01882309F451
:100A300027CF0E94000024CF26013701E89477F8E1
:100A40002FEF3FEF4FE75FE7C301B2010E9473074B
:100A500081110DC02FEF3FEF4FE75FE7C301B201F8
:100A60000E941B0618161CF48AE291E0AECF2FEF0D
:100A70003FEF4FE75FE4C701B6010E940107181678
:100A80001CF48EE291E0A1CF2FEF3FEF4FE75FEC38
:100A9000C701B6010E941B0687FDF3CF20E030E0BE
:100AA000A901C701B6010E941B0687FF09C06DE2BC
:100AB0008FE391E00E944401F7FAF094F7F8F09484
:100AC0002AE037ED43EA5BE3C701B6010E94AF05B8
:100AD0002B013C010E9420066B017C010E944F0605
:100AE0009B01AC01C301B2010E94AE052B013C0188
:100AF0004AE0C701B6010E94C1016EE28FE391E0B6
:100B00000E94440120E030E040E251E4C301B20120
:100B10000E9406072B013C010E9420066B01F12C6C
:100B2000E12C4AE0C701B6010E94C101C701B6012C
:100B30000E944F069B01AC01C301B2010E94AE05A9
:100B400020E030E040E251E40E9406070E942006C7
:100B500090E080E04AE00E94C10139CF5058BB27A5
:100B6000AA270E94C6050C94C7060E94B90638F051
:100B70000E94C00620F039F49F3F19F426F40C942B
:100B8000B6060EF4E095E7FB0C94B006E92F0E9440
:100B9000D80658F3BA17620773078407950720F041
:100BA00079F4A6F50C94FA060EF4E0950B2EBA2F04
:100BB000A02D0B01B90190010C01CA01A001112463
:100BC000FF27591B99F0593F50F4503E68F11A160F
:100BD000F040A22F232F342F4427585FF3CF4695A0
:100BE00037952795A795F0405395C9F77EF41F16C2
:100BF000BA0B620B730B840BBAF09150A1F0FF0F8C
:100C0000BB1F661F771F881FC2F70EC0BA0F621F77
:100C1000731F841F48F4879577956795B795F79567
:100C20009E3F08F0B0CF9395880F08F09927EE0FFC
:100C30009795879508950E948C0608F481E00895A1
:100C40000E94E00688F09F5798F0B92F9927B75176
:100C5000B0F0E1F0660F771F881F991F1AF0BA9560
:100C6000C9F714C0B13091F00E94FA06B1E00895BE
:100C70000C94FA06672F782F8827B85F39F0B93FB0
:100C8000CCF3869577956795B395D9F73EF4909513
:100C90008095709561957F4F8F4F9F4F0895E89491
:100CA00009C097FB3EF490958095709561957F4FB4
:100CB0008F4F9F4F9923A9F0F92F96E9BB27939562
:100CC000F695879577956795B795F111F8CFFAF472
:100CD000BB0F11F460FF1BC06F5F7F4F8F4F9F4FA3
:100CE00016C0882311F096E911C0772321F09EE801
:100CF000872F762F05C0662371F096E8862F70E067
:100D000060E02AF09A95660F771F881FDAF7880F40
:100D10009695879597F90895990F0008550FAA0B96
:100D2000E0E8FEEF16161706E807F907C0F01216FE
:100D30001306E407F50798F0621B730B840B950B01
:100D400039F40A2661F0232B242B252B21F4089556
:100D50000A2609F4A140A6958FEF811D811D0895F3
:100D600097F99F6780E870E060E008959FEF80EC5E
:100D7000089500240A941616170618060906089501
:100D800000240A9412161306140605060895092E67
:100D90000394000C11F4882352F0BB0F40F4BF2BD6
:100DA00011F460FF04C06F5F7F4F8F4F9F4F089516
:100DB00057FD9058440F551F59F05F3F71F047950C
:100DC000880F97FB991F61F09F3F79F087950895F1
:100DD000121613061406551FF2CF4695F1DF08C010
:100DE000161617061806991FF1CF8695710561052D
:100DF00008940895E894BB2766277727CB0197F9D5
:100E000008950E948C0608F48FEF08950E94190738
:100E10000C94C7060E94B90638F00E94C00620F064
:100E2000952311F00C94B0060C94B60611240C9482
:100E3000FB060E94D80670F3959FC1F3950F50E012
:100E4000551F629FF001729FBB27F00DB11D639F7C
:100E5000AA27F00DB11DAA1F649F6627B00DA11D22
:100E6000661F829F2227B00DA11D621F739FB00DC8
:100E7000A11D621F839FA00D611D221F749F332738
:100E8000A00D611D231F849F600D211D822F762FD1
:100E90006A2F11249F5750409AF0F1F088234AF0AE
:100EA000EE0FFF1FBB1F661F771F881F915050401A
:100EB000A9F79E3F510580F00C94B0060C94FB06F8
:100EC0005F3FE4F3983ED4F3869577956795B795A1
:100ED000F795E7959F5FC1F7FE2B880F911D9695BB
:100EE000879597F908950E948C06880B990B0895B1
:100EF000A1E21A2EAA1BBB1BFD010DC0AA1FBB1F1E
:100F0000EE1FFF1FA217B307E407F50720F0A21B8F
:100F1000B30BE40BF50B661F771F881F991F1A94FC
:100F200069F760957095809590959B01AC01BD0126
:100F3000CF010895052E97FB1EF400940E94B1077F
:100F400057FD07D00E94780707FC03D04EF40C949D
:100F5000B10750954095309521953F4F4F4F5F4FCA
:100F6000089590958095709561957F4F8F4F9F4F15
:100F70000895EE0FFF1F0590F491E02D0994F89469
:020F8000FFCFA1
:100F8200A200A200000000004401A300D1009101D0
:100F92000201E000F40074696D65203E20313030BA
:100FA2003021000D0A006E616E00696E66006F7678
:020FB2006600D7
:00000001FF
