:100000000C9453000C948D020C9466020C947B00AB
:100010000C947B000C947B000C947B000C947B0074
:100020000C947B000C947B000C947B000C947B0064
:100030000C947B000C947B000C947B000C947B0054
:100040000C941C020C947B000C94DA020C94B40205
:100050000C947B000C947B000C947B000C947B0034
:100060000C947B000C947B0000000000250028000D
:100070002B0000000000240027002A0004040404D0
:100080000404040402020202020203030303030342
:10009000010204081020408001020408102001021F
:1000A000040810200C0311241FBECFEFD8E0DEBFE0
:1000B000CDBF11E0A0E0B1E0E0EBFFE002C00590B1
:1000C0000D92A233B107D9F721E0A2E3B1E001C05C
:1000D0001D92A83EB207E1F710E0C3E5D0E004C0EE
:1000E0002197FE010E94D007C235D107C9F70E94AF
:1000F0007D030C94D6070C9400003FB7F8948091D0
:100100003D0190913E01A0913F01B091400126B583
:10011000A89B05C02F3F19F00196A11DB11D3FBF3F
:10012000BA2FA92F982F8827BC01CD01620F711D0E
:10013000811D911D42E0660F771F881F991F4A9508
:10014000D1F708950895AF92BF92CF92DF92EF92C8
:10015000FF920F931F93CF93DF936C017B018B0171
:10016000040F151FEB015E01AE18BF08C017D107C1
:1001700059F06991D601ED91FC910190F081E02D4B
:10018000C6010995892B79F7C501DF91CF911F91A0
:100190000F91FF90EF90DF90CF90BF90AF900895B8
:1001A00010923301109232010895FC01538D448D59
:1001B000252F30E0842F90E0821B930B541710F012
:1001C000CF96089501970895FC01918D828D98171F
:1001D00061F0A28DAE0FBF2FB11D5D968C91928DF7
:1001E0009F5F9F73928F90E008958FEF9FEF089528
:1001F000FC01918D828D981731F0828DE80FF11DF1
:10020000858D90E008958FEF9FEF0895FC01918D0B
:10021000228D892F90E0805C9F4F821B91098F7304
:100220009927089581E491E00E94060121E0892B3D
:1002300009F420E0822F089580E090E0892B29F0D6
:100240000E94120181110C9400000895FC01A48DFC
:10025000A80FB92FB11DA35ABF4F2C91848D90E0E8
:1002600001968F739927848FA689B7892C93A089CB
:10027000B1898C91837080648C93938D848D981355
:1002800006C00288F389E02D80818F7D80830895E8
:10029000EF92FF920F931F93CF93DF93EC0181E0D6
:1002A000888F9B8D8C8D98131AC0E889F98980817D
:1002B00085FF15C09FB7F894EE89FF896083E889B0
:1002C000F98980818370806480839FBF81E090E0A2
:1002D000DF91CF911F910F91FF90EF900895F62E2F
:1002E0000B8D10E00F5F1F4F0F731127E02E8C8DC9
:1002F0008E110CC00FB607FCFACFE889F98980810E
:1003000085FFF5CFCE010E942601F1CFEB8DEC0FDA
:10031000FD2FF11DE35AFF4FF0829FB7F8940B8F2A
:10032000EA89FB8980818062CFCFCF93DF93EC0194
:10033000888D8823B9F0AA89BB89E889F9898C91CD
:1003400085FD03C0808186FD0DC00FB607FCF7CF89
:100350008C9185FFF2CF808185FFEDCFCE010E9489
:100360002601E9CFDF91CF910895809132019091DC
:100370003301892B79F48091E6019091E701019690
:100380009093E7018093E60181E090E09093330140
:10039000809332010895FC0101900020E9F7319724
:1003A000AF01481B590BBC0181E491E00C94A30000
:1003B0008F929F92AF92BF920F931F93CF93DF9331
:1003C000CDB7DEB7A1970FB6F894DEBF0FBECDBF95
:1003D00019A2423008F44AE08E010F5D1F4F842EAF
:1003E000912CB12CA12CA50194010E948F07E62F1E
:1003F000B901CA01EA30F4F4E05DD801EE938D0151
:10040000232B242B252B79F790E080E0109719F00F
:10041000CD010E94CB01A1960FB6F894DEBF0FBEAE
:10042000CDBFDF91CF911F910F91BF90AF909F9063
:100430008F900895E95CE1CF1F920F920FB60F9253
:1004400011242F933F938F939F93AF93BF938091EA
:10045000390190913A01A0913B01B0913C0130915A
:10046000380123E0230F2D3758F50196A11DB11D4A
:10047000209338018093390190933A01A0933B0176
:10048000B0933C0180913D0190913E01A0913F01CC
:10049000B09140010196A11DB11D80933D01909343
:1004A0003E01A0933F01B0934001BF91AF919F9156
:1004B0008F913F912F910F900FBE0F901F90189525
:1004C00026E8230F0296A11DB11DD2CF1F920F92D5
:1004D0000FB60F9211242F933F934F935F936F9317
:1004E0007F938F939F93AF93BF93EF93FF93E0918D
:1004F0000201F09103010995FF91EF91BF91AF9136
:100500009F918F917F916F915F914F913F912F912B
:100510000F900FBE0F901F9018951F920F920FB65D
:100520000F9211242F933F934F935F936F937F9379
:100530008F939F93AF93BF93EF93FF93E09100014D
:10054000F09101010995FF91EF91BF91AF919F91BA
:100550008F917F916F915F914F913F912F910F906C
:100560000FBE0F901F9018951F920F920FB60F920B
:1005700011242F933F934F935F936F937F938F93A8
:100580009F93AF93BF93EF93FF9381E491E00E9419
:100590002601FF91EF91BF91AF919F918F917F9134
:1005A0006F915F914F913F912F910F900FBE0F90E0
:1005B0001F9018951F920F920FB60F9211242F9330
:1005C0008F939F93EF93FF93E0915101F09152012C
:1005D0008081E0915701F091580182FD1BC090810C
:1005E00080915A018F5F8F7320915B01821741F0D8
:1005F000E0915A01F0E0EF5BFE4F958F80935A0136
:10060000FF91EF919F918F912F910F900FBE0F90BF
:100610001F9018958081F4CF1092440110924301ED
:1006200088EE93E0A0E0B0E080934501909346010E
:10063000A0934701B093480188E091E09093420174
:100640008093410185EC90E090934E0180934D01A1
:1006500084EC90E09093500180934F0180EC90E007
:10066000909352018093510181EC90E0909354015A
:100670008093530182EC90E0909356018093550152
:1006800086EC90E0909358018093570110925A01A4
:1006900010925B0110925C0110925D0182E48093E4
:1006A0007C0080917A00806480937A0080917A0047
:1006B00086FDFCCF80917800809179006091E60101
:1006C0007091E701072E000C880B990B2091E20135
:1006D0003091E3014091E4015091E5010E94B1079E
:1006E000CA01B9010E9468066093DE017093DF01C0
:1006F0008093E0019093E1010895789484B582603D
:1007000084BD84B5816084BD85B5826085BD85B5B5
:10071000816085BD80916E00816080936E00109233
:1007200081008091810082608093810080918100AE
:10073000816080938100809180008160809380003F
:100740008091B10084608093B1008091B00081609D
:100750008093B00080917A00846080937A008091C9
:100760007A00826080937A0080917A008160809321
:100770007A0080917A00806880937A001092C1009C
:10078000E0915101F091520182E08083E0914D01AE
:10079000F0914E011082E0914F01F09150018FECE9
:1007A000808310925901E0915501F091560186E045
:1007B0008083E0915301F0915401808180618083B6
:1007C000E0915301F0915401808188608083E09131
:1007D0005301F0915401808180688083E09153013E
:1007E000F091540180818F7D8083E2E9F0E02491D3
:1007F000EEE7F0E084918823C1F090E0880F991F24
:10080000FC01EE58FF4FC591D491FC01E859FF4F10
:10081000A591B4919FB7F8943881822F8095832356
:100820008883EC91E22BEC939FBFE8E9F0E0249100
:10083000E4E8F0E08491882399F090E0880F991F14
:10084000FC01EE58FF4FA591B491FC01E859FF4F10
:10085000859194918FB7F894EC91E22BEC938FBF34
:1008600080ED90E0909303018093020180916900F4
:10087000837F886080936900E99A85EB91E090938B
:100880000101809300018091690083608093690079
:10089000E89A98EE892E93E0992EA12CB12CC2EA09
:1008A000D0E020ED222E20E0322E05EB11E08FB7B4
:1008B000F8944091390150913A0160913B01709157
:1008C0003C018FBF4093E2015093E3016093E40148
:1008D0007093E5018091340190913501A09136012A
:1008E000B091370188519C4FAF4FBF4F8417950788
:1008F000A607B7070CF06EC0E998D0930301C09328
:100900000201E898D0930101C0930001C090E60174
:10091000D090E7010D2C000CEE08FF086091E20179
:100920007091E3018091E4019091E50140903401E0
:100930005090350160903601709037016419750947
:1009400086099709A50194010E94B107C701B60164
:100950000E94B107CA01B9010E9468066093DE01D6
:100960007093DF018093E0019093E1012FB7F89439
:100970008091390190913A01A0913B01B0913C01E5
:100980002FBF8093340190933501A0933601B0932B
:1009900037011092E7011092E60186E191E00E9492
:1009A000CB0183E291E00E94CB01309203012092BF
:1009B000020180916900837F886080936900E99AD1
:1009C000109301010093000180916900836080937E
:1009D0006900E89AC090DE01D090DF01E090E0016C
:1009E000F090E101A7019601C701B6010E948A07B4
:1009F0008823C9F186E291E00E94CB0183E291E075
:100A00000E94CB010E947D006B017C0184E6482E90
:100A1000512C612C712C0E947D006C197D098E096E
:100A20009F09683E734081059105A8F321E0421AB1
:100A300051086108710888EEC80E83E0D81EE11CD9
:100A4000F11C411451046104710429F780E090E025
:100A5000892B09F42CCF0E941201882309F427CF97
:100A60000E94000024CF26013701E89477F82FEF89
:100A70003FEF4FE75FE7C301B2010E948A07811190
:100A80000DC02FEF3FEF4FE75FE7C301B2010E94B8
:100A9000320618161CF48AE291E0AECF2FEF3FEF3A
:100AA0004FE75FE4C701B6010E94180718161CF44F
:100AB0008EE291E0A1CF2FEF3FEF4FE75FECC70150
:100AC000B6010E94320687FDF3CF20E030E0A90195
:100AD000C701B6010E94320687FF09C06DE281E4BA
:100AE00091E00E944801F7FAF094F7F8F0942AE0B8
:100AF00037ED43EA5BE3C701B6010E94C6052B014F
:100B00003C010E9437066B017C010E9466069B0136
:100B1000AC01C301B2010E94C5052B013C014AE0B2
:100B2000C701B6010E94D8016EE281E491E00E9403
:100B3000480120E030E040E251E4C301B2010E94EC
:100B40001D072B013C010E9437066B01F12CE12CA3
:100B50004AE0C701B6010E94D801C701B6010E9450
:100B600066069B01AC01C301B2010E94C50520E0ED
:100B700030E040E251E40E941D070E94370690E0F9
:100B800080E04AE00E94D80139CF5058BB27AA27FD
:100B90000E94DD050C94DE060E94D00638F00E940B
:100BA000D70620F039F49F3F19F426F40C94CD06B3
:100BB0000EF4E095E7FB0C94C706E92F0E94EF06C0
:100BC00058F3BA17620773078407950720F079F482
:100BD000A6F50C9411070EF4E0950B2EBA2FA02D5C
:100BE0000B01B90190010C01CA01A0011124FF27DA
:100BF000591B99F0593F50F4503E68F11A16F040D5
:100C0000A22F232F342F4427585FF3CF46953795D3
:100C10002795A795F0405395C9F77EF41F16BA0B98
:100C2000620B730B840BBAF09150A1F0FF0FBB1F46
:100C3000661F771F881FC2F70EC0BA0F621F731F8F
:100C4000841F48F4879577956795B795F7959E3FEC
:100C500008F0B0CF9395880F08F09927EE0F97957D
:100C6000879508950E94A30608F481E008950E94E4
:100C7000F70688F09F5798F0B92F9927B751B0F031
:100C8000E1F0660F771F881F991F1AF0BA95C9F710
:100C900014C0B13091F00E941107B1E008950C9496
:100CA0001107672F782F8827B85F39F0B93FCCF349
:100CB000869577956795B395D9F73EF4909580958D
:100CC000709561957F4F8F4F9F4F0895E89409C0AD
:100CD00097FB3EF490958095709561957F4F8F4F6F
:100CE0009F4F9923A9F0F92F96E9BB279395F69585
:100CF000879577956795B795F111F8CFFAF4BB0F03
:100D000011F460FF1BC06F5F7F4F8F4F9F4F16C066
:100D1000882311F096E911C0772321F09EE8872FF0
:100D2000762F05C0662371F096E8862F70E060E0AC
:100D30002AF09A95660F771F881FDAF7880F969525
:100D4000879597F90895990F0008550FAA0BE0E8C9
:100D5000FEEF16161706E807F907C0F0121613067D
:100D6000E407F50798F0621B730B840B950B39F4BD
:100D70000A2661F0232B242B252B21F408950A2623
:100D800009F4A140A6958FEF811D811D089597F963
:100D90009F6780E870E060E008959FEF80EC089521
:100DA00000240A941616170618060906089500244A
:100DB0000A9412161306140605060895092E0394C4
:100DC000000C11F4882352F0BB0F40F4BF2B11F438
:100DD00060FF04C06F5F7F4F8F4F9F4F089557FD97
:100DE0009058440F551F59F05F3F71F04795880F99
:100DF00097FB991F61F09F3F79F087950895121630
:100E000013061406551FF2CF4695F1DF08C01616DB
:100E100017061806991FF1CF86957105610508948C
:100E20000895E894BB2766277727CB0197F90895A3
:100E30000E94A30608F48FEF08950E9430070C94D7
:100E4000DE060E94D00638F00E94D70620F09523D7
:100E500011F00C94C7060C94CD0611240C941207C3
:100E60000E94EF0670F3959FC1F3950F50E0551F58
:100E7000629FF001729FBB27F00DB11D639FAA27EF
:100E8000F00DB11DAA1F649F6627B00DA11D661F3E
:100E9000829F2227B00DA11D621F739FB00DA11D5F
:100EA000621F839FA00D611D221F749F3327A00D19
:100EB000611D231F849F600D211D822F762F6A2FB5
:100EC00011249F5750409AF0F1F088234AF0EE0F1A
:100ED000FF1FBB1F661F771F881F91505040A9F747
:100EE0009E3F510580F00C94C7060C9412075F3F9B
:100EF000E4F3983ED4F3869577956795B795F79583
:100F0000E7959F5FC1F7FE2B880F911D96958795FA
:100F100097F908950E94A306880B990B0895A1E202
:100F20001A2EAA1BBB1BFD010DC0AA1FBB1FEE1F63
:100F3000FF1FA217B307E407F50720F0A21BB30BAE
:100F4000E40BF50B661F771F881F991F1A9469F72A
:100F500060957095809590959B01AC01BD01CF0186
:100F60000895052E97FB1EF400940E94C80757FDB4
:100F700007D00E948F0707FC03D04EF40C94C807DB
:100F800050954095309521953F4F4F4F5F4F0895B5
:100F900090958095709561957F4F8F4F9F4F0895E5
:100FA000EE0FFF1F0590F491E02D0994F894FFCF08
:100FB000A200A200000000004801A300D500950196
:100FC0000601E400F80074696D65203E2031303080
:100FD0003021000D0A006E616E00696E66006F764A
:020FE0006600A9
:00000001FF
